:10009E005561727420496E697469616C697A696E12
:1000AE00672E2E2E2E2E2E200A0055617274204998
:1000BE006E697469616C697A696E672046696E69EA
:1000CE0073686564202121200A00546865207661DA
:1000DE006C7565206F66204144206973203A2000BC
:0401AC007F507EC33F
:0B01B000EF1FAC0670011E4C70F62221
:10000300E4FDFCD2A70000C2B4D2B50000C2B50023
:1000130000EF146013047028D2A70000D2B50000CB
:10002300C2B50000C2A7800ED2A70000D2B500005F
:10003300C2B50000D2A70000D2B50000C2B50000CF
:10004300D2A70000E4FED2B50000C2B5000030A77D
:100053000543050180035305FEEEC394075004EDE9
:1000630025E0FD0EBE08DFED5401C4333354C0FC5C
:10007300E4FED2B50000C2B5000030A705430480FA
:10008300800353047FEEC394065004ECC313FC0EA9
:0A009300BE07DFD2B4EDB50401FF93
:01009D002240
:10018700758920758BFA758DFAD28E7598504387CD
:0401970080C2992267
:09019B0075F00A84E5F02430FF40
:0801A4008F993099FDC29922E8
:060167008B088A09890AD9
:10016D00E4FEAB08AA09A90A8E8275830012013A32
:09017D00FF60061201A40E80E9E6
:010186002256
:1000EE001201877BFF7A00799E1201671201AC7BA9
:1000FE00FF7A0079B81201671201ACE4FF12000317
:10010E00AD077BFF7A0079D8120167ED75F0648434
:10011E002430FF1201A4ED75F00A8412019BED123A
:0C012E00019B7F0A1201A41201AC80CFDB
:030000000201BB3F
:0C01BB00787FE4F6D8FD75810A0200EEA2
:10013A00BB010CE58229F582E5833AF583E022507A
:10014A0006E92582F8E622BBFE06E92582F8E222C4
:0D015A00E58229F582E5833AF583E49322DE
:00000001FF
